{
  "contractName": "Error",
  "abi": [
    {
      "inputs": [
        {
          "internalType": "uint256",
          "name": "",
          "type": "uint256"
        }
      ],
      "name": "articles",
      "outputs": [
        {
          "internalType": "address",
          "name": "",
          "type": "address"
        }
      ],
      "stateMutability": "view",
      "type": "function",
      "constant": true
    },
    {
      "inputs": [
        {
          "internalType": "uint256",
          "name": "",
          "type": "uint256"
        }
      ],
      "name": "bodies",
      "outputs": [
        {
          "internalType": "string",
          "name": "",
          "type": "string"
        }
      ],
      "stateMutability": "view",
      "type": "function",
      "constant": true
    },
    {
      "inputs": [
        {
          "internalType": "uint256",
          "name": "",
          "type": "uint256"
        }
      ],
      "name": "categories",
      "outputs": [
        {
          "internalType": "uint256",
          "name": "",
          "type": "uint256"
        }
      ],
      "stateMutability": "view",
      "type": "function",
      "constant": true
    },
    {
      "inputs": [
        {
          "internalType": "uint256",
          "name": "",
          "type": "uint256"
        }
      ],
      "name": "titles",
      "outputs": [
        {
          "internalType": "string",
          "name": "",
          "type": "string"
        }
      ],
      "stateMutability": "view",
      "type": "function",
      "constant": true
    },
    {
      "inputs": [],
      "name": "getLatestArticleNumber",
      "outputs": [
        {
          "internalType": "uint256",
          "name": "",
          "type": "uint256"
        }
      ],
      "stateMutability": "view",
      "type": "function",
      "constant": true
    },
    {
      "inputs": [
        {
          "internalType": "address",
          "name": "writer",
          "type": "address"
        },
        {
          "internalType": "string",
          "name": "title",
          "type": "string"
        },
        {
          "internalType": "string",
          "name": "body",
          "type": "string"
        },
        {
          "internalType": "uint256",
          "name": "category",
          "type": "uint256"
        }
      ],
      "name": "createArticle",
      "outputs": [],
      "stateMutability": "payable",
      "type": "function",
      "payable": true
    },
    {
      "inputs": [
        {
          "internalType": "address",
          "name": "writer",
          "type": "address"
        },
        {
          "internalType": "uint256",
          "name": "articleNumber",
          "type": "uint256"
        },
        {
          "internalType": "string",
          "name": "title",
          "type": "string"
        },
        {
          "internalType": "string",
          "name": "body",
          "type": "string"
        },
        {
          "internalType": "uint256",
          "name": "category",
          "type": "uint256"
        }
      ],
      "name": "modifyArticle",
      "outputs": [],
      "stateMutability": "payable",
      "type": "function",
      "payable": true
    },
    {
      "inputs": [
        {
          "internalType": "address",
          "name": "writer",
          "type": "address"
        },
        {
          "internalType": "uint256",
          "name": "articleNumber",
          "type": "uint256"
        }
      ],
      "name": "deleteArticle",
      "outputs": [],
      "stateMutability": "payable",
      "type": "function",
      "payable": true
    }
  ],
  "bytecode": "0x60806040526000805534801561001457600080fd5b506111a5806100246000396000f3fe60806040526004361061007b5760003560e01c8063b0f0b81c1161004e578063b0f0b81c14610141578063c6cdbe5e1461015d578063eb9169d01461019a578063edcfafe6146101b65761007b565b80632115e16114610080578063234a1191146100ab5780632cda1bf7146100c757806344cee73c14610104575b600080fd5b34801561008c57600080fd5b506100956101f3565b6040516100a291906107a0565b60405180910390f35b6100c560048036038101906100c0919061099f565b6101fc565b005b3480156100d357600080fd5b506100ee60048036038101906100e99190610a3e565b6103d4565b6040516100fb9190610aea565b60405180910390f35b34801561011057600080fd5b5061012b60048036038101906101269190610a3e565b610474565b6040516101389190610aea565b60405180910390f35b61015b60048036038101906101569190610b0c565b610514565b005b34801561016957600080fd5b50610184600480360381019061017f9190610a3e565b610636565b60405161019191906107a0565b60405180910390f35b6101b460048036038101906101af9190610b4c565b61064e565b005b3480156101c257600080fd5b506101dd60048036038101906101d89190610a3e565b610754565b6040516101ea9190610c0e565b60405180910390f35b60008054905090565b600083905060008390506000805490506000835103610250576040517f08c379a000000000000000000000000000000000000000000000000000000000815260040161024790610c75565b60405180910390fd5b6000825103610294576040517f08c379a000000000000000000000000000000000000000000000000000000000815260040161028b90610ce1565b60405180910390fd5b6000841115806102a45750600384115b156102e4576040517f08c379a00000000000000000000000000000000000000000000000000000000081526004016102db90610d4d565b60405180910390fd5b60016000808282546102f69190610d9c565b9250508190555086600160008054815260200190815260200160002060006101000a81548173ffffffffffffffffffffffffffffffffffffffff021916908373ffffffffffffffffffffffffffffffffffffffff16021790555085600260008054815260200190815260200160002090816103719190610fdc565b5084600360008054815260200190815260200160002090816103939190610fdc565b50836004600080548152602001908152602001600020819055506001816103ba9190610d9c565b600054146103cb576103ca6110ae565b5b50505050505050565b600260205280600052604060002060009150905080546103f390610dff565b80601f016020809104026020016040519081016040528092919081815260200182805461041f90610dff565b801561046c5780601f106104415761010080835404028352916020019161046c565b820191906000526020600020905b81548152906001019060200180831161044f57829003601f168201915b505050505081565b6003602052806000526040600020600091509050805461049390610dff565b80601f01602080910402602001604051908101604052809291908181526020018280546104bf90610dff565b801561050c5780601f106104e15761010080835404028352916020019161050c565b820191906000526020600020905b8154815290600101906020018083116104ef57829003601f168201915b505050505081565b81816001600082815260200190815260200160002060009054906101000a900473ffffffffffffffffffffffffffffffffffffffff1673ffffffffffffffffffffffffffffffffffffffff168273ffffffffffffffffffffffffffffffffffffffff16146105b7576040517f08c379a00000000000000000000000000000000000000000000000000000000081526004016105ae9061114f565b60405180910390fd5b604051806020016040528060008152506002600085815260200190815260200160002090816105e69190610fdc565b50604051806020016040528060008152506003600085815260200190815260200160002090816106169190610fdc565b506000600460008581526020019081526020016000208190555050505050565b60046020528060005260406000206000915090505481565b84846001600082815260200190815260200160002060009054906101000a900473ffffffffffffffffffffffffffffffffffffffff1673ffffffffffffffffffffffffffffffffffffffff168273ffffffffffffffffffffffffffffffffffffffff16146106f1576040517f08c379a00000000000000000000000000000000000000000000000000000000081526004016106e89061114f565b60405180910390fd5b846002600088815260200190815260200160002090816107119190610fdc565b50836003600088815260200190815260200160002090816107329190610fdc565b5082600460008881526020019081526020016000208190555050505050505050565b60016020528060005260406000206000915054906101000a900473ffffffffffffffffffffffffffffffffffffffff1681565b6000819050919050565b61079a81610787565b82525050565b60006020820190506107b56000830184610791565b92915050565b6000604051905090565b600080fd5b600080fd5b600073ffffffffffffffffffffffffffffffffffffffff82169050919050565b60006107fa826107cf565b9050919050565b61080a816107ef565b811461081557600080fd5b50565b60008135905061082781610801565b92915050565b600080fd5b600080fd5b6000601f19601f8301169050919050565b7f4e487b7100000000000000000000000000000000000000000000000000000000600052604160045260246000fd5b61088082610837565b810181811067ffffffffffffffff8211171561089f5761089e610848565b5b80604052505050565b60006108b26107bb565b90506108be8282610877565b919050565b600067ffffffffffffffff8211156108de576108dd610848565b5b6108e782610837565b9050602081019050919050565b82818337600083830152505050565b6000610916610911846108c3565b6108a8565b90508281526020810184848401111561093257610931610832565b5b61093d8482856108f4565b509392505050565b600082601f83011261095a5761095961082d565b5b813561096a848260208601610903565b91505092915050565b61097c81610787565b811461098757600080fd5b50565b60008135905061099981610973565b92915050565b600080600080608085870312156109b9576109b86107c5565b5b60006109c787828801610818565b945050602085013567ffffffffffffffff8111156109e8576109e76107ca565b5b6109f487828801610945565b935050604085013567ffffffffffffffff811115610a1557610a146107ca565b5b610a2187828801610945565b9250506060610a328782880161098a565b91505092959194509250565b600060208284031215610a5457610a536107c5565b5b6000610a628482850161098a565b91505092915050565b600081519050919050565b600082825260208201905092915050565b60005b83811015610aa5578082015181840152602081019050610a8a565b60008484015250505050565b6000610abc82610a6b565b610ac68185610a76565b9350610ad6818560208601610a87565b610adf81610837565b840191505092915050565b60006020820190508181036000830152610b048184610ab1565b905092915050565b60008060408385031215610b2357610b226107c5565b5b6000610b3185828601610818565b9250506020610b428582860161098a565b9150509250929050565b600080600080600060a08688031215610b6857610b676107c5565b5b6000610b7688828901610818565b9550506020610b878882890161098a565b945050604086013567ffffffffffffffff811115610ba857610ba76107ca565b5b610bb488828901610945565b935050606086013567ffffffffffffffff811115610bd557610bd46107ca565b5b610be188828901610945565b9250506080610bf28882890161098a565b9150509295509295909350565b610c08816107ef565b82525050565b6000602082019050610c236000830184610bff565b92915050565b7f5469746c6520697320656d7074792e0000000000000000000000000000000000600082015250565b6000610c5f600f83610a76565b9150610c6a82610c29565b602082019050919050565b60006020820190508181036000830152610c8e81610c52565b9050919050565b7f426f647920697320656d7074792e000000000000000000000000000000000000600082015250565b6000610ccb600e83610a76565b9150610cd682610c95565b602082019050919050565b60006020820190508181036000830152610cfa81610cbe565b9050919050565b7f43617465676f727920646f6573206e6f742065786973742e0000000000000000600082015250565b6000610d37601883610a76565b9150610d4282610d01565b602082019050919050565b60006020820190508181036000830152610d6681610d2a565b9050919050565b7f4e487b7100000000000000000000000000000000000000000000000000000000600052601160045260246000fd5b6000610da782610787565b9150610db283610787565b9250828201905080821115610dca57610dc9610d6d565b5b92915050565b7f4e487b7100000000000000000000000000000000000000000000000000000000600052602260045260246000fd5b60006002820490506001821680610e1757607f821691505b602082108103610e2a57610e29610dd0565b5b50919050565b60008190508160005260206000209050919050565b60006020601f8301049050919050565b600082821b905092915050565b600060088302610e927fffffffffffffffffffffffffffffffffffffffffffffffffffffffffffffffff82610e55565b610e9c8683610e55565b95508019841693508086168417925050509392505050565b6000819050919050565b6000610ed9610ed4610ecf84610787565b610eb4565b610787565b9050919050565b6000819050919050565b610ef383610ebe565b610f07610eff82610ee0565b848454610e62565b825550505050565b600090565b610f1c610f0f565b610f27818484610eea565b505050565b5b81811015610f4b57610f40600082610f14565b600181019050610f2d565b5050565b601f821115610f9057610f6181610e30565b610f6a84610e45565b81016020851015610f79578190505b610f8d610f8585610e45565b830182610f2c565b50505b505050565b600082821c905092915050565b6000610fb360001984600802610f95565b1980831691505092915050565b6000610fcc8383610fa2565b9150826002028217905092915050565b610fe582610a6b565b67ffffffffffffffff811115610ffe57610ffd610848565b5b6110088254610dff565b611013828285610f4f565b600060209050601f8311600181146110465760008415611034578287015190505b61103e8582610fc0565b8655506110a6565b601f19841661105486610e30565b60005b8281101561107c57848901518255600182019150602085019450602081019050611057565b868310156110995784890151611095601f891682610fa2565b8355505b6001600288020188555050505b505050505050565b7f4e487b7100000000000000000000000000000000000000000000000000000000600052600160045260246000fd5b7f4f6e6c7920746865207772697465722063616e206d6f6469667920746865697260008201527f2061727469636c65732e00000000000000000000000000000000000000000000602082015250565b6000611139602a83610a76565b9150611144826110dd565b604082019050919050565b600060208201905081810360008301526111688161112c565b905091905056fea2646970667358221220a2ef5a8a230bab2207addb1b4b99cc3ea13aceeda79e9b0e366ba9c2b8d269a764736f6c63430008110033",
  "immutableReferences": {},
  "source": "// SPDX-License-Identifier: MIT\n// compiler version must be greater than or equal to 0.8.17 and less than 0.9.0\npragma solidity ^0.8.17;\n\ncontract Error {\n    // keep track of the latest article number\n    uint latestArticleNumber = 0;\n\n    // create mappings (articles/titles/bodies/categories)\n    mapping(uint => address) public articles;\n    mapping(uint => string) public titles;\n    mapping(uint => string) public bodies;\n    mapping(uint => uint) public categories;\n\n    modifier onlyWriter(address writer, uint articleNumber) {\n        require(writer == articles[articleNumber], \"Only the writer can modify their articles.\");\n        _;\n    }\n\n    function getLatestArticleNumber() external view returns(uint) {\n        return latestArticleNumber;\n    }\n\n    // create article\n    function createArticle(address writer, string memory title, string memory body, uint category) external payable {\n        bytes memory byteTitle = bytes(title);\n        bytes memory byteBody = bytes(body);\n        uint prevLatestArticleNumber = latestArticleNumber;\n\n        // make sure that title/body is not empty\n        if (byteTitle.length == 0) {\n            revert(\"Title is empty.\");\n        } else if (byteBody.length == 0) {\n            revert(\"Body is empty.\");\n        } else if (category <= 0 || category > 3) {\n            // category is only 1,2,3\n            revert(\"Category does not exist.\");\n        }\n\n        // increment latest article number\n        latestArticleNumber += 1;\n\n        // save article info\n        articles[latestArticleNumber] = writer;\n        titles[latestArticleNumber] = title;\n        bodies[latestArticleNumber] = body;\n        categories[latestArticleNumber] = category;\n\n        // make sure that article number was incremented correctly\n        assert(latestArticleNumber == prevLatestArticleNumber + 1);\n    }\n\n    // modify article\n    function modifyArticle(address writer, uint articleNumber, string memory title, string memory body, uint category) external payable onlyWriter(writer, articleNumber) {\n        // modify article info \n        titles[articleNumber] = title;\n        bodies[articleNumber] = body;\n        categories[articleNumber] = category;\n    }\n\n    // delete article\n    function deleteArticle(address writer, uint articleNumber) external payable onlyWriter(writer, articleNumber) {\n        titles[articleNumber] = \"\";\n        bodies[articleNumber] = \"\";\n        categories[articleNumber] = 0;\n    }\n}",
  "sourcePath": "/workspace/solidity_starter/contracts/Error.sol",
  "compiler": {
    "name": "solc",
    "version": "0.8.17+commit.8df45f5f.Emscripten.clang"
  },
  "schemaVersion": "3.4.16",
  "updatedAt": "2024-07-05T07:17:54.111Z",
  "networkType": "ethereum",
  "devdoc": {
    "kind": "dev",
    "methods": {},
    "version": 1
  },
  "userdoc": {
    "kind": "user",
    "methods": {},
    "version": 1
  }
}